:100000004CC070C06FC06EC06DC06CC06BC06AC0A9
:1000100069C068C067C066C065C064C063C062C0B4
:1000200084CC60C05FC05EC05DC05CC05BC05AC0B5
:1000300059C058C000000009000302000004050870
:100040000000000000000000000000010204081091
:100050002040800102040810200102040810204002
:1000600080400404040404040404020202020202A4
:10007000030303030303020203000000002300261E
:1000800000290000000000250028002B00000000CF
:1000900000240027002A0000F90B11241FBECFEF17
:1000A000D4E0DEBFCDBF11E0A0E0B1E0E4ECFCE1C4
:1000B00002C005900D92A031B107D9F721E0A0E16F
:1000C000B1E001C01D92A53AB207E1F710E0CDE41E
:1000D000D0E003C02197FE01D7DDCC34D107D1F7A2
:1000E000C8DDEECD8DCFD6CDDDCDEF920F93CF9382
:1000F000DF9385E0E82E0FE020E14EE063E182E14E
:1001000091E0C3DB81E190E0EEDF823008F0AEC029
:1001100090E09093650180936401809164019091D7
:100120006501892B09F090C0CCE0D0E01AB860E1FD
:1001300070E080E090E068DC509A60E170E080E080
:1001400090E062DC219791F790E080E0CCDF90E0D6
:10015000909309018093080181E090E0C4DF90E072
:1001600090930B0180930A0182E090E0BCDF90E065
:10017000909301018093000183E090E0B4DF90E070
:10018000909303018093020184E090E0ACDF90E063
:10019000909305018093040185E090E0A4DF90E056
:1001A00090930701809306018DE090E09CDF90E042
:1001B00090936101809360018EE090E094DF90E085
:1001C00090935F0180935E0187E090E08CDF90E088
:1001D00090932D0180932C0188E090E084DF90E0E3
:1001E00090932B0180932A0189E090E07CDF90E0DE
:1001F00090932901809328018AE090E074DF90E0D9
:1002000090932701809326018BE090E06CDF90E0D3
:1002100090932501809324018CE090E064DF90E0CE
:1002200090932301809322018FE090E05CDF90E0C7
:10023000909321018093200180E190E054DF90E0D1
:1002400090931F0180931E0180916401909165013C
:10025000019739F4509A68EE73E080E090E0D4DBC7
:100260001AB8DF91CF910F91EF90089581E090E05F
:10027000909365018093640161E081E190E034DF57
:100280004CCFA0917001B09171011196B0937101A2
:10029000A0937001E0916E01F0916F013196F0939F
:1002A0006F01E0936E0160916C0170916D016F5F61
:1002B0007F4F70936D0160936C0140916A01509182
:1002C0006B014F5F5F4F50936B0140936A01209128
:1002D0006801309169012F5F3F4F3093690120938E
:1002E0006801809166019091670101969093670182
:1002F00080936601129724F01092710110927001A0
:10030000339724F010926F0110926E0164307105E2
:1003100024F010926D0110926C014630510524F0CA
:1003200010926B0110926A012830310524F010926E
:100330006901109268010A9724F0109267011092E7
:10034000660180912C0190912D018130910561F41D
:1003500080917001909171011816190674F0109235
:100360008F0110928E0109C082309105C9F48091ED
:100370006E0190916F01029794F380912A01909100
:100380002B018130910589F5809170019091710167
:10039000181619069CF110928D0110928C012EC036
:1003A0008330910529F480916C0190916D01E3CF28
:1003B0008430910539F480916A0190916B01039723
:1003C00074F2DBCF8530910539F48091680190910A
:1003D0006901049724F2D1CF069779F680916601DE
:1003E0009091670105974CF6BACF82309105C9F418
:1003F00080916E0190916F0102976CF280912801BB
:10040000909129018130910599F580917001909129
:10041000710118161906ACF110928B0110928A0125
:1004200030C08330910529F480916C0190916D0169
:10043000E3CF8430910541F480916A0190916B0182
:1004400003970CF4A8CFDACF8530910541F4809161
:1004500068019091690104970CF49DCFCFCF069766
:1004600069F6809166019091670105973CF693CFFC
:1004700082309105C9F480916E0190916F010297CD
:100480005CF280912601909127018130910599F5C8
:10049000809170019091710118161906ACF11092BB
:1004A00093011092920130C08330910529F480911C
:1004B0006C0190916D01E3CF8430910541F48091FE
:1004C0006A0190916B0103970CF4A6CFDACF8530C7
:1004D000910541F4809168019091690104970CF4B1
:1004E0009BCFCFCF069769F6809166019091670107
:1004F00005973CF691CF82309105C9F480916E0149
:1005000090916F0102975CF28091240190912501F6
:100510008130910599F580917001909171011816C3
:100520001906ACF1109291011092900130C0833005
:10053000910529F480916C0190916D01E3CF843095
:10054000910541F480916A0190916B0103970CF43D
:10055000A6CFDACF8530910541F480916801909162
:10056000690104970CF49BCFCFCF069769F6809171
:1005700066019091670105973CF691CF8230910515
:10058000C9F480916E0190916F0102975CF28091A5
:100590002201909123018130910599F5809170019C
:1005A0009091710118161906ACF110928901109200
:1005B000880130C08330910529F480916C019091BD
:1005C0006D01E3CF8430910541F480916A019091EF
:1005D0006B0103970CF4A6CFDACF8530910541F477
:1005E000809168019091690104970CF49BCFCFCF63
:1005F000069769F6809166019091670105973CF630
:1006000091CF82309105C9F480916E0190916F0174
:1006100002975CF280912001909121018130910537
:1006200099F5809170019091710118161906ACF13D
:10063000109287011092860130C08330910529F411
:1006400080916C0190916D01E3CF8430910541F46C
:1006500080916A0190916B0103970CF4A6CFDACFD9
:100660008530910541F4809168019091690104976A
:100670000CF49BCFCFCF069769F6809166019091DD
:10068000670105973CF691CF82309105C9F48091BE
:100690006E0190916F0102975CF280911E01909122
:1006A0001F018130910599F5809170019091710140
:1006B00018161906ACF1109285011092840130C011
:1006C0008330910529F480916C0190916D01E3CF05
:1006D0008430910541F480916A0190916B010397F8
:1006E0000CF4A6CFDACF8530910541F480916801F2
:1006F0009091690104970CF49BCFCFCF069769F6D0
:10070000809166019091670105973CF691CF823008
:10071000910539F480916E0190916F0102975CF21E
:1007200008958330910529F480916C0190916D01B9
:10073000F5CF8430910541F480916A0190916B016D
:1007400003970CF4B8CF08958530910541F480915A
:1007500068019091690104970CF4ADCF0895069754
:10076000F9F6809166019091670105970CF4A3CF8B
:10077000D7CF809148019091490190935D0180937A
:100780005C01809146019091470190935B018093B9
:100790005A0180913E0190913F01909353018093C3
:1007A00052018091420190914301909357018093AF
:1007B00056018091400190914101909355018093A1
:1007C0005401809144019091450190935901809387
:1007D0005801809138019091390190934D01809397
:1007E0004C01809136019091370190934B01809399
:1007F0004A0180913C0190913D0190935101809379
:10080000500180913A0190913B0190934F01809368
:100810004E0110927F0110927E0110927D01109284
:100820007C0110929B0110929A01109299011092F2
:1008300098011092970110929601109295011092D2
:100840009401109281011092800110928301109204
:100850008201109277011092760110923901109264
:100860003801109237011092360110923501109222
:100870003401109233011092320110923101109222
:10088000300110922F0110922E0110924901109206
:1008900048011092470110924601109245011092B2
:1008A000440110923D0110923C0110923B011092C4
:1008B0003A011092430110924201109241011092AC
:1008C000400110923F0110923E0110928F01109250
:1008D0008E0110928D0110928C011092890110925C
:1008E000880110929301109292011092910110923E
:1008F000900110928B0110928A0110928701109240
:100900008601109285011092840182E191E0EAD77C
:10091000909311018093100160E170E080E090E01D
:1009200073D8809110019091110193FF18C020910C
:1009300008013091090130938F0120938E0121E04D
:1009400030E03093490120934801209176013091A5
:1009500077012F5F3F4F309377012093760194FF0B
:1009600018C020910601309107013093890120932E
:10097000880121E030E0309345012093440120912B
:100980007601309177012F5F3F4F309377012093AD
:10099000760195FF18C0209160013091610130937C
:1009A00087012093860121E030E030933D012093C0
:1009B0003C0120917601309177012F5F3F4F3093BA
:1009C00077012093760197FF18C020915E01309146
:1009D0005F01309385012093840121E030E0309362
:1009E0003B0120933A0120917601309177012F5FEE
:1009F0003F4F309377012093760191FF18C02091EB
:100A0000040130910501309391012093900121E080
:100A100030E03093410120934001209176013091E4
:100A200077012F5F3F4F309377012093760184FF4A
:100A30000AC021E030E0309383012093820130939B
:100A400039012093380196FF18C0209100013091A0
:100A5000010130938B0120938A0121E030E0309333
:100A60003F0120933E0120917601309177012F5F65
:100A70003F4F309377012093760192FF18C0209169
:100A8000020130910301309393012093920121E000
:100A900030E0309343012093420120917601309160
:100AA00077012F5F3F4F309377012093760183FFCB
:100AB00009C020917C0130917D01226030937D013D
:100AC00020937C0187FF0AC021E030E03093810150
:100AD00020938001309337012093360181FF09C0B4
:100AE00020917C0130917D01206130937D01209324
:100AF0007C0180FF09C020917C0130917D01206242
:100B000030937D0120937C0182FF09C020917C01FC
:100B100030917D01206430937D0120937C0190FF12
:100B200017C080910A0190910B0190938D018093E1
:100B30008C0181E090E09093470180934601809181
:100B400076019091770101969093770180937601D9
:100B50000895CF93DF93E0918C01F0918D01A091E6
:100B60008E01B0918F01609188017091890140914F
:100B700092015091930120919001309191018091C7
:100B80008A0190918B01E230F105D9F0A230B105D4
:100B9000C1F062307105A9F04230510591F0223068
:100BA000310579F08230910561F0C0918601D091D4
:100BB0008701229731F0C0918401D091850122975D
:100BC00049F4C0917E01D0917F01C160D0937F0133
:100BD000C0937E0163307105D9F0E330F105C1F0B7
:100BE000A330B105A9F04330510591F02330310510
:100BF00079F08330910561F0C0918601D091870131
:100C0000239731F0C0918401D0918501239749F455
:100C1000C0917E01D0917F01C260D0937F01C093CB
:100C20007E0144305105D9F0E430F105C1F0A43023
:100C3000B105A9F06430710591F02430310579F0E7
:100C40008430910561F0C0918601D091870124978D
:100C500031F0C0918401D0918501249749F4C0916D
:100C60007E01D0917F01C460D0937F01C0937E014B
:100C7000C0918201D0918301219749F4C0917E01F6
:100C8000D0917F01C860D0937F01C0937E018630F0
:100C90009105D9F0E630F105C1F0A630B105A9F013
:100CA0006630710591F04630510579F026303105F6
:100CB00061F0C0918601D0918701269731F0C091F3
:100CC0008401D0918501269749F4C0917E01D0918D
:100CD0007F01C061D0937F01C0937E012530310533
:100CE000D9F0E530F105C1F0A530B105A9F06530C6
:100CF000710591F04530510579F08530910561F02D
:100D0000C0918601D0918701259731F0C09184016F
:100D1000D0918501259749F4C0917E01D0917F0142
:100D2000C062D0937F01C0937E01C0918001D091B9
:100D30008101219749F4C0917C01D0917D01C4606B
:100D4000D0937D01C0937C011197C9F03197B9F020
:100D500061307105A1F04130510589F02130310534
:100D600071F0019761F08091860190918701019760
:100D700031F08091840190918501019749F480912F
:100D80007C0190917D01806890937D0180937C012E
:100D9000DF91CF910895CF93DF9380913C019091A3
:100DA0003D01019709F052C18091440190914501A4
:100DB000019709F04BC180918001909181010197C9
:100DC00009F044C18091500190915101019709F0BF
:100DD0003DC18091580190915901019709F036C1A8
:100DE00080914A0190914B01019709F02FC18091A8
:100DF0006201909163010196909363018093620177
:100E0000209162013091630180910C0190910D015C
:100E1000281739070CF4A9C01092630110926201DF
:100E20008091640190916501019690936501809392
:100E3000640102970CF40FC11092650110926401D5
:100E4000CCE0D0E01AB860E170E080E090E0DCD562
:100E5000509A60E170E080E090E0D6D5219791F75C
:100E600090E080E040D990E09093090180930801E0
:100E700081E090E038D990E090930B0180930A01D3
:100E800082E090E030D990E09093010180930001DE
:100E900083E090E028D990E09093030180930201D1
:100EA00084E090E020D990E09093050180930401C4
:100EB00085E090E018D990E09093070180930601B7
:100EC0008DE090E010D990E09093610180936001F3
:100ED0008EE090E008D990E090935F0180935E01EE
:100EE00087E090E000D990E090932D0180932C0151
:100EF00088E090E0F8D890E090932B0180932A014D
:100F000089E090E0F0D890E0909329018093280147
:100F10008AE090E0E8D890E0909327018093260142
:100F20008BE090E0E0D890E090932501809324013D
:100F30008CE090E0D8D890E0909323018093220138
:100F40008FE090E0D0D890E0909321018093200131
:100F500080E190E0C8D890E090931F0180931E013B
:100F60006091640181E190E0BFD84091820150918D
:100F700083014130510509F0C3C080917601909101
:100F80007701029709F0BCC080914C0190914D010E
:100F9000019709F0B5C08091640190916501892B9A
:100FA00009F0AEC0809178019091790101969093FB
:100FB00079018093780120910E0130910F01809189
:100FC0007801909179018217930754F0109279017A
:100FD0001092780181E090E090937B0180937A01F8
:100FE0004130510509F091C08091760190917701CF
:100FF000019709F08AC080914C0190914D010197B1
:1010000009F083C08091640190916501892B09F0FA
:101010007CC080917201909173010196909373014D
:1010200080937201809172019091730182179307EE
:1010300054F0109273011092720181E090E090934D
:10104000750180937401DF91CF910895109263012F
:1010500010926201D5CE509A68EE73E080E090E085
:10106000D3D41AB814B881E090E090930B01809328
:101070000A0182E090E0909309018093080183E0E7
:1010800090E0909307018093060184E090E09093B4
:1010900005018093040185E090E090930301809323
:1010A000020186E090E0909301018093000110928C
:1010B00061011092600110925F0110925E01109226
:1010C0002D0110922C0110922B0110922A011092E6
:1010D00029011092280110922701109226011092E6
:1010E00025011092240110922301109222011092E6
:1010F00021011092200110921F0110921E0130CF89
:10110000109279011092780156CF109273011092CB
:10111000720188CF809176019091770120918201B0
:10112000309183012130310551F58230910539F537
:10113000109209011092080110920B0110920A01FD
:10114000109201011092000110920301109202010D
:1011500010920501109204011092070110920601ED
:10116000109261011092600110925F0110925E0175
:1011700030937D0120937C0181E08AB9089520910C
:101180007C0130917D01216030937D0120937C01B1
:1011900020914801309149012130310599F4209185
:1011A0005C0130915D01232B69F48130910551F48C
:1011B00020910801309109012F5F3F4F30930901C1
:1011C0002093080120910801309109012730310551
:1011D00024F01092090110920801209146013091EB
:1011E00047012130310599F420915A0130915B017A
:1011F000232B69F48130910551F420910A0130913B
:101200000B012F5F3F4F30930B0120930A01209178
:101210000A0130910B012730310524F010920B01A7
:1012200010920A0120913E0130913F012130310599
:1012300099F42091520130915301232B69F48130AC
:10124000910551F420910001309101012F5F3F4F32
:1012500030930101209300012091000130910101A0
:101260002730310524F010920101109200012091E5
:101270003C0130913D012130310599F4209150011C
:1012800030915101232B69F48130910551F4209163
:101290006001309161012F5F3F4F309361012093D6
:1012A000600120916001309161012730310524F007
:1012B000109261011092600120913A0130913B013E
:1012C0002130310599F420914E0130914F01232BAB
:1012D00069F48130910551F420915E0130915F01F4
:1012E0002F5F3F4F30935F0120935E0120915E019D
:1012F00030915F012730310524F010925F01109288
:101300005E0120914201309143012130310599F471
:101310002091560130915701232B69F481309105BA
:1013200051F420910201309103012F5F3F4F309320
:101330000301209302012091020130910301273023
:10134000310524F010920301109202012091400116
:10135000309141012130310599F4209154013091AF
:101360005501232B69F48130910551F4209104013A
:10137000309105012F5F3F4F309305012093040109
:1013800020910401309105012730310524F010929D
:101390000501109204012091440130914501213052
:1013A000310599F42091580130915901232B69F4AA
:1013B0008130910551F420910601309107012F5F92
:1013C0003F4F309307012093060120910601309191
:1013D00007012730310524F0109207011092060111
:1013E000019721F410927D0110927C0180917C0183
:1013F0008AB98091820190918301019791F5809142
:101400004C0190914D01892B61F510927B01109256
:101410007A016091080190E080E066D660910A014F
:1014200081E090E061D66091000182E090E05CD6BE
:101430006091020183E090E057D66091040184E05E
:1014400090E052D66091060185E090E04DD6609123
:1014500060018DE090E048D660915E018EE090E002
:1014600043C6089580917601909177012091820181
:10147000309183012130310551F58130910539F5E5
:1014800010922D0110922C0110922B0110922A0122
:101490001092290110922801109227011092260122
:1014A0001092250110922401109223011092220122
:1014B000109221011092200110921F0110921E0122
:1014C00090937D0180937C0181E08AB908952091F9
:1014D0007C0130917D01216030937D0120937C015E
:1014E00020914801309149012130310599F4209132
:1014F0005C0130915D01232B69F48130910551F439
:1015000020912C0130912D012F5F3F4F30932D0101
:1015100020932C0120912C0130912D012730310591
:1015200024F010922D0110922C012091460130914F
:1015300047012130310599F420915A0130915B0126
:10154000232B69F48130910551F420912A013091C7
:101550002B012F5F3F4F30932B0120932A012091C5
:101560002A0130912B012730310524F010922B01F4
:1015700010922A0120913E0130913F012130310526
:1015800099F42091520130915301232B69F4813059
:10159000910551F420912801309129012F5F3F4F8F
:1015A00030932901209328012091280130912901AD
:1015B0002730310524F01092290110922801209142
:1015C0004201309143012130310599F420915601B7
:1015D00030915701232B69F48130910551F420910A
:1015E0002601309127012F5F3F4F30932701209331
:1015F000260120912601309127012730310524F062
:101600001092270110922601209140013091410152
:101610002130310599F42091540130915501232B4B
:1016200069F48130910551F4209124013091250114
:101630002F5F3F4F309325012093240120912401F7
:10164000309125012730310524F0109225011092A8
:10165000240120914401309145012130310599F454
:101660002091580130915901232B69F48130910563
:1016700051F420912201309123012F5F3F4F30938D
:101680002301209322012091220130912301273050
:10169000310524F0109223011092220120913C0187
:1016A00030913D012130310599F420915001309164
:1016B0005101232B69F48130910551F420912001CF
:1016C000309121012F5F3F4F309321012093200162
:1016D00020912001309121012730310524F0109212
:1016E00021011092200120913A0130913B012130DB
:1016F000310599F420914E0130914F01232B69F46B
:101700008130910551F420911E0130911F012F5F0E
:101710003F4F30931F0120931E0120911E013091F5
:101720001F012730310524F010921F0110921E0175
:10173000019721F410927D0110927C0180917C012F
:101740008AB98091820190918301019791F58091EE
:101750004C0190914D01892B61F510927501109209
:10176000740160912C0187E090E0BED460912A0161
:1017700088E090E0B9D46091280189E090E0B4D489
:10178000609126018AE090E0AFD4609124018BE063
:1017900090E0AAD4609122018CE090E0A5D4609101
:1017A00020018FE090E0A0D460911E0180E190E0E4
:1017B0009BC40895DED7EFDA80917A0190917B0186
:1017C000019761F41092750110927401A3DC80916D
:1017D0007E0184B980917C018AB908958091740159
:1017E00090917501019711F43DDEF1CF4AD5B1D941
:1017F000EECF82E191E000C00895EF92FF920F9347
:101800001F93CF93DF93EC011E821F821D82062F50
:1018100010E080E8E82EF12C9D81983070F58981E8
:10182000980102C0359527959A95E2F761E020FF6F
:1018300060E0C9D160E08B81C6D18C8190E01AD183
:101840008881EED121E0009709F420E02E83892BD6
:1018500051F08D81970102C0359527958A95E2F761
:101860008F81822B8F8361E08B81ADD18C8190E061
:1018700001D18D818F5F8D83CFCF8F81DF91CF910C
:101880001F910F91FF90EF900895DF92EF92FF92DA
:101890000F931F93CF93DF93EC01F62ED42E122FCC
:1018A00060E08F2D54D161E08F2D8DD1F88261E001
:1018B0008D2D4DD1D98261E0812F49D11A8361E00C
:1018C000812F81D161E0802F42D10B8361E0802F95
:1018D0007AD1EC82DF91CF911F910F91FF90EF9021
:1018E000DF900895CF93DF93EC0160E08A816BD1A4
:1018F00061E0CE0182DF62E4CE017FDF6FEFCE01D7
:101900007CDF6FEFCE0179DF809588876FEFCE01A6
:1019100074DF8095898761E08A8155D188859985B2
:101920009B878A87DF91CF9108951F920F920FB600
:101930000F9211242F933F938F939F93AF93BF9355
:1019400080919D0190919E01A0919F01B091A00175
:1019500030919C0126E0230F2D3758F50296A11DEA
:10196000B11D20939C0180939D0190939E01A093B3
:101970009F01B093A0018091A1019091A201A0913B
:10198000A301B091A4010196A11DB11D8093A101F5
:101990009093A201A093A301B093A401BF91AF9132
:1019A0009F918F913F912F910F900FBE0F901F909D
:1019B000189529E8230F0396A11DB11DD2CF3FB77B
:1019C000F8948091A1019091A201A091A301B091FE
:1019D000A40126B5A89B05C02F3F19F00196A11DB3
:1019E000B11D3FBFBA2FA92F982F8827BC01CD0169
:1019F000620F711D811D911D43E0660F771F881FC7
:101A0000991F4A95D1F708958F929F92AF92BF92F6
:101A1000CF92DF92EF92FF926B017C01D0DF4B01FE
:101A20005C01C114D104E104F104D9F02CD1C7DF69
:101A3000681979098A099B09683E734081059105F7
:101A400080F321E0C21AD108E108F10888EE880E7F
:101A500083E0981EA11CB11CC114D104E104F1045F
:101A600031F7FF90EF90DF90CF90BF90AF909F90B5
:101A70008F9008958330910528F0880F991F04975F
:101A80000197F1F70895789484B5826084BD84B598
:101A9000816084BD85B5826085BD85B5816085BD69
:101AA000EEE6F0E0808181608083E1E8F0E0108282
:101AB000808182608083808181608083E0E8F0E0C3
:101AC000808181608083E1EBF0E0808184608083AD
:101AD000E0EBF0E0808181608083EAE7F0E08081E4
:101AE0008460808380818260808380818E7F808318
:101AF0008081806880831092C1000895843081F0D5
:101B000028F4823099F08330A9F008958830A9F044
:101B10008930C9F08530B1F4809180008F7D03C099
:101B2000809180008F7780938000089584B58F77AF
:101B300084BD089584B58F7DFBCF8091B0008F77F1
:101B40008093B00008958091B0008F7DF9CFCF933E
:101B5000DF9390E0FC01E55BFF4F24918E599F4F8E
:101B6000FC0184918823C9F090E0880F991FFC0143
:101B7000E357FF4FA591B491FC01ED57FF4FC5917D
:101B8000D49161110DC09FB7F8948C912095822358
:101B90008C938881282328839FBFDF91CF9108955C
:101BA000623051F49FB7F8943C91822F8095832343
:101BB0008C93E8812E2BEFCF8FB7F894EC912E2BDE
:101BC0002C938FBFEACF1F93CF93DF93282F30E062
:101BD000F901EC5CFF4F8491F901E55BFF4FD49173
:101BE000F901EE59FF4FC491CC23A1F0162F8111BA
:101BF00085DFEC2FF0E0EE0FFF1FED57FF4FA591B3
:101C0000B4918FB7F894EC91111108C0D095DE23F0
:101C1000DC938FBFDF91CF911F910895DE2BF8CF1A
:101C2000CF93DF93282F30E0F901EC5CFF4F8491D4
:101C3000F901E55BFF4FD491F901EE59FF4FC491D3
:101C4000CC2399F081115ADFEC2FF0E0EE0FFF1F4B
:101C5000E758FF4FA591B491EC91ED2381E090E01E
:101C600009F480E0DF91CF91089580E090E0FACF11
:101C7000089509DFFDDF39D2C0E0D0E09BDD209779
:101C8000E9F3BED1FBCF0895EE0FFF1F0590F4914D
:101C9000E02D0994F999FECF92BD81BDF89A99275C
:101CA00080B50895262FF999FECF1FBA92BD81BD48
:101CB00020BD0FB6F894FA9AF99A0FBE01960895CE
:041CC000F894FFCFC6
:101CC400060005000400030002000100DC00A0007F
:00000001FF
