:020000040000FA
:100000004BC065C064C063C062C061C060C05FC0F7
:100010005EC05DC05CC05BC05AC059C058C057C00C
:10002000B4C155C054C053C052C051C050C04FC0DD
:100030004EC04DC000000000240027002A00000030
:100040000000250028002B000000000023002600EF
:10005000290004040404040404040202020202024B
:1000600003030303030302020301020408102040F8
:100070008001020408102001020408102040804082
:100080000000000900030200000405080000000051
:10009000000000000000000011241FBECFEFD4E0DC
:1000A000DEBFCDBF11E0A0E0B1E0E4E6FBE102C0BD
:1000B00005900D92AC30B107D9F721E0ACE0B1E08A
:1000C00001C01D92AF38B207E1F7A9D149CD98CF51
:1000D000843081F028F48230E9F08330F9F008951B
:1000E000883071F0893091F08530B9F480918000CA
:1000F0008F7D03C0809180008F778093800008956A
:100100008091B0008F778093B00008958091B00007
:100110008F7DF9CF84B58F7784BD089584B58F7DA9
:10012000FBCF1F93CF93DF93282F30E0F901E058E6
:10013000FF4F8491F901E759FF4FD491F901EE5A2D
:10014000FF4FC491CC23A1F0162F8111C1DFEC2FFA
:10015000F0E0EE0FFF1FE25CFF4FA591B4918FB767
:10016000F894EC91111108C0D095DE23DC938FBF79
:10017000DF91CF911F910895DE2BF8CFCF93DF93BE
:1001800090E0FC01E759FF4F24918E5A9F4FFC01EC
:1001900084918823D1F090E0880F991FFC01EC5CDA
:1001A000FF4FA591B491FC01E25CFF4FC591D49142
:1001B00061110EC09FB7F8948C91E22FE0958E23C9
:1001C0008C932881E223E8839FBFDF91CF9108952C
:1001D0008FB7F894EC91E22BEC938FBFF6CF000031
:1001E00000008330910528F0880F991F059701972B
:1001F000F1F70895EF92FF920F931F93CF93DF9340
:100200001092890110928A0110928801C82FD0E0C3
:1002100000E810E090918801983008F056C0809175
:1002200084019E0102C0359527959A95E2F761E019
:1002300020FF60E076DF60E08091860172DF8091D0
:10024000870190E0CCDF2091830130E0F901E05894
:10025000FF4F8491F901E759FF4FE490F901EE5AFD
:10026000FF4FF490F11010C01092890161E080916D
:10027000860157DF8091870190E0B1DF809188018E
:100280008F5F80938801C6CF811122DFEF2DF0E0D0
:10029000EE0FFF1FE85BFF4FA591B491EC91EE21AB
:1002A00081E009F480E080938901EE23F9F28091E6
:1002B0008801980102C0359527958A95E2F78091CB
:1002C0008A01822B80938A01D1CF80918A01DF91AC
:1002D000CF911F910F91FF90EF9008953FB7F89441
:1002E00080917F0190918001A0918101B091820164
:1002F00026B5A89B05C02F3F19F00196A11DB11D81
:100300003FBFBA2FA92F982F8827BC01CD01620FBC
:10031000711D811D911D43E0660F771F881F991F76
:100320004A95D1F708958F929F92AF92BF92CF9244
:10033000DF92EF92FF924B015C01D0DF6B017C01F9
:10034000CDDF6C197D098E099F09683E73408105D8
:100350009105B0F321E0821A9108A108B10888EE56
:10036000C80E83E0D81EE11CF11C81149104A10485
:10037000B10431F7FF90EF90DF90CF90BF90AF9036
:100380009F908F900895DECBD5CB1F920F920FB622
:100390000F9211242F933F938F939F93AF93BF930B
:1003A00080917B0190917C01A0917D01B0917E01B3
:1003B00030917A0126E0230F2D3768F129E8230FC9
:1003C0000396A11DB11D20937A0180937B01909328
:1003D0007C01A0937D01B0937E0180917F0190917B
:1003E0008001A0918101B09182010196A11DB11DF2
:1003F00080937F0190938001A0938101B09382014B
:10040000BF91AF919F918F913F912F910F900FBE10
:100410000F901F9018950296A11DB11DD4CF78940E
:1004200084B5836084BD85B5836085BD80916E0091
:10043000816080936E0082E08093810080918100D2
:100440008160809381008091800081608093800032
:100450008091B10084608093B1008091B000816090
:100460008093B00086E880937A001092C10060E02B
:1004700083E184DE61E083E154DE83E180938301E4
:1004800061E08EE07BDE8EE08093840161E080E1BC
:1004900075DE80E18093850161E043DE61E08FE0FD
:1004A0006DDE8FE08093860161E03BDE8AE0809321
:1004B000870181E190E068DF282F30E0309315015B
:1004C00020931401823050F081E090E09093150168
:1004D0008093140161E081E190E055DF8091140187
:1004E00090911501892B09F090C0CCE0D0E01AB8AA
:1004F00060E170E080E090E016DF509A60E170E02B
:1005000080E090E010DF219791F790E080E03CDF01
:1005100090E090930B0180930A0181E090E034DF3A
:1005200090E0909309018093080182E090E02CDF35
:1005300090E0909307018093060183E090E024DF30
:1005400090E0909305018093040184E090E01CDF2B
:1005500090E0909303018093020185E090E014DF26
:1005600090E090930101809300018DE090E00CDF1A
:1005700090E090931D0180931C018EE090E004DFD9
:1005800090E090931B0180931A0187E090E0FCDEDD
:1005900090E0909351018093500188E090E0F4DE68
:1005A00090E090934F0180934E0189E090E0ECDE63
:1005B00090E090934D0180934C018AE090E0E4DE5E
:1005C00090E090934B0180934A018BE090E0DCDE59
:1005D00090E090934901809348018CE090E0D4DE54
:1005E00090E090934701809346018FE090E0CCDE4D
:1005F00090E0909345018093440180E190E0C4DE57
:1006000090E0909343018093420180911401909176
:100610001501019739F4509A68EE73E080E090E09C
:1006200082DE1AB8C1E0D0E093E0292E312C24E01C
:10063000422E512C35E0632E712C46E0A42EB12CB5
:1006400080913E0190913F0190933D0180933C0148
:1006500080913A0190913B01909339018093380148
:100660008091360190913701909335018093340148
:100670008091320190913301909331018093300148
:1006800080912E0190912F0190932D0180932C0148
:10069000C0902A01D0902B01D0922901C09228014C
:1006A00080910E0190910F0190931F0180931E0184
:1006B000E0900C01F0900D01F0921901E092180108
:1006C000809026019090270190922501809224012C
:1006D0008091220190912301909321018093200128
:1006E00010927501109274011092730110927201B0
:1006F00010925F0110925E011092610110926001F0
:10070000109241011092400110920F0110920E01BF
:1007100010920D0110920C0110923F0110923E01B7
:1007200010923B0110923A0110922B0110922A0173
:10073000109227011092260110922301109222019B
:10074000109233011092320110922F0110922E015B
:10075000109237011092360110926F0110926E01C3
:10076000109271011092700110926D0110926C0143
:1007700010926B0110926A01109269011092680147
:100780001092670110926601109265011092640147
:10079000109263011092620160E080918501C1DCDA
:1007A00081E028DD82E426DD8FEF24DD8FEF22DD7E
:1007B000809580938B018FEF1DDD809580938C0158
:1007C00061E080918501ADDC80918B0190918C017D
:1007D00090938E0180938D0193FF10C020910A01A8
:1007E00030910B0130936F0120936E01D0933F0144
:1007F000C0933E01D0934101C093400194FF16C0C5
:10080000209100013091010130936D0120936C0122
:10081000D0932B01C0932A012091400130914101D6
:100820002F5F3F4F309341012093400195FF16C049
:1008300020911C0130911D013093650120936401CA
:10084000D0932701C09326012091400130914101AE
:100850002F5F3F4F309341012093400197FF16C017
:1008600020911A0130911B013093630120936201A2
:10087000D0932301C0932201209140013091410186
:100880002F5F3F4F309341012093400191FF16C0ED
:100890002091020130910301309369012093680196
:1008A000D0932F01C0932E0120914001309141013E
:1008B0002F5F3F4F309341012093400184FF08C0D8
:1008C000D0936101C0936001D0930F01C0930E01DA
:1008D00096FF16C020910601309107013093670101
:1008E00020936601D0933701C093360120914001D7
:1008F000309141012F5F3F4F3093410120934001E0
:1009000092FF16C0209104013091050130936B01D4
:1009100020936A01D0933301C093320120914001AA
:10092000309141012F5F3F4F3093410120934001AF
:1009300083FF06C022E030E0309373012093720100
:1009400087FF08C0D0935F01C0935E01D0930D0173
:10095000C0930C0181FF09C0209172013091730195
:100960002061309373012093720180FF09C02091B0
:1009700072013091730120623093730120937201F0
:1009800082FF09C02091720130917301206430937D
:1009900073012093720190FF15C08091080190911E
:1009A00009019093710180937001D0933B01C09332
:1009B0003A0180914001909141010196909341014B
:1009C000809340018091260190912701019709F0C1
:1009D00093C180912A0190912B01019709F08CC15C
:1009E00080915E0190915F01019709F085C18A9421
:1009F000892809F081C1CA94CD2809F07DC1EA9403
:100A0000EF2809F079C180911601909117010196A4
:100A10009093170180931601809116019091170110
:100A20008C3D91050CF4ACC0109217011092160188
:100A30008091140190911501019690931501809376
:100A4000140102970CF45DC110921501109214016B
:100A50008CE0E82EF12C1AB860E170E080E090E0C4
:100A600062DC509A60E170E080E090E05CDC11E0D4
:100A7000E11AF10881F790E080E086DC90E0909345
:100A80000B0180930A0181E090E07EDC90E090937E
:100A900009018093080182E090E076DC90E0909379
:100AA00007018093060183E090E06EDC90E0909374
:100AB00005018093040184E090E066DC90E090936F
:100AC00003018093020185E090E05EDC90E090936A
:100AD0000101809300018DE090E056DC90E090935E
:100AE0001D0180931C018EE090E04EDC90E090931D
:100AF0001B0180931A0187E090E046DC90E0909320
:100B000051018093500188E090E03EDC90E09093AA
:100B10004F0180934E0189E090E036DC90E09093A5
:100B20004D0180934C018AE090E02EDC90E09093A0
:100B30004B0180934A018BE090E026DC90E090939B
:100B40004901809348018CE090E01EDC90E0909396
:100B50004701809346018FE090E016DC90E090938F
:100B600045018093440180E190E00EDC90E0909399
:100B70004301809342016091140181E190E003DC24
:100B800080916001909161018130910509F004C16B
:100B900020914001309141012230310509F0FCC023
:100BA00020911E0130911F012130310509F0F4C060
:100BB0002091140130911501232B09F0EDC02091F3
:100BC0001201309113012F5F3F4F30931301209397
:100BD00012012091120130911301203A310544F0A5
:100BE0001092130110921201D0937901C0937801F1
:100BF0008130910509F0D5C020914001309141012B
:100C00002130310509F0CDC020911E0130911F0126
:100C10002130310509F0C5C0209114013091150132
:100C2000232B09F0BEC020911001309111012F5FDC
:100C30003F4F30931101209310012091100130910A
:100C40001101203A310544F0109211011092100167
:100C5000D0937701C093760120917801309179018A
:100C60002130310509F000C210927701109276010F
:100C700020914001309141018130910509F096C0E9
:100C80002230310509F092C010920B0110920A0136
:100C900010920901109208011092070110920601AA
:100CA00010920501109204011092030110920201AA
:100CB000109201011092000110921D0110921C016E
:100CC00010921B0110921A0190937301809372018C
:100CD00081E08AB98091740184B9809172018AB9E6
:100CE0006FE070E080E090E01EDB20E030E0232B3E
:100CF00009F4A6CC85D9A4CC109217011092160144
:100D00008BCE509A68EE73E080E090E00CDB1AB86E
:100D100014B8D0930901C093080122E030E0309369
:100D20000B0120930A0130920101209200015092A0
:100D30000301409202017092050160920401B09299
:100D40000701A092060110921D0110921C01109241
:100D50001B0110921A011092510110925001109231
:100D60004F0110924E0110924D0110924C011092C1
:100D70004B0110924A0110924901109248011092C1
:100D800047011092460110924501109244011092C1
:100D9000430110924201EFCE109213011092120102
:100DA00018CF109211011092100147CF809172015B
:100DB000909173018160909373018093720180918F
:100DC0003E0190913F01019791F480913C019091F7
:100DD0003D01892B61F42130310549F480910A01EC
:100DE00090910B01019690930B0180930A018091E1
:100DF0000A0190910B01079724F010920B011092B9
:100E00000A0180913A0190913B01019791F4809100
:100E1000380190913901892B61F42130310549F471
:100E200080910801909109010196909309018093A6
:100E300008018091080190910901079724F0109210
:100E400009011092080180913601909137010197B4
:100E500091F48091340190913501892B61F4213016
:100E6000310549F480910601909107010196909314
:100E70000701809306018091060190910701079771
:100E800024F01092070110920601809126019091A2
:100E90002701019791F48091240190912501892BDC
:100EA00061F42130310549F480911C0190911D01BC
:100EB000019690931D0180931C0180911C019091DB
:100EC0001D01079724F010921D0110921C018091C2
:100ED000220190912301019791F48091200190913A
:100EE0002101892B61F42130310549F480911A01E7
:100EF00090911B01019690931B0180931A018091A0
:100F00001A0190911B01079724F010921B01109277
:100F10001A018091320190913301019791F48091EF
:100F2000300190913101892B61F42130310549F470
:100F300080910401909105010196909305018093A1
:100F400004018091040190910501079724F010920B
:100F500005011092040180912E0190912F010197BB
:100F600091F480912C0190912D01892B61F4213015
:100F7000310549F48091020190910301019690930B
:100F80000301809302018091020190910301079770
:100F900024F0109203011092020180912A01909195
:100FA0002B01019791F48091280190912901892BBF
:100FB00061F42130310549F48091000190910101E3
:100FC000019690930101809300018091000190911E
:100FD0000101079724F010920101109200012130C5
:100FE000310521F410927301109272018091720107
:100FF0008AB98091600190916101019709F06ACEF0
:1010000080911E0190911F01892B09F063CE1092EF
:1010100079011092780160910A0190E080E0B3D9E3
:101020006091080181E090E0AED96091060182E014
:1010300090E0A9D96091040183E090E0A4D9609187
:10104000020184E090E09FD96091000185E090E08A
:101050009AD960911C018DE090E095D960911A01B8
:101060008EE090E090D936CE2091760130917701D4
:101070002130310509F088C12091400130914101B2
:101080008130910521F52130310509F5109251018A
:101090001092500110924F0110924E0110924D018A
:1010A00010924C0110924B0110924A01109249018A
:1010B000109248011092470110924601109245018A
:1010C000109244011092430110924201FDCD809193
:1010D000720190917301816090937301809372010A
:1010E00080913E0190913F01019791F480913C01E4
:1010F00090913D01892B61F42130310549F48091B3
:1011000050019091510101969093510180935001AB
:101110008091500190915101079724F01092510154
:101120001092500180913A0190913B01019791F406
:101130008091380190913901892B61F4213031057A
:1011400049F480914E0190914F01019690934F0187
:1011500080934E0180914E0190914F01079724F0AA
:1011600010924F0110924E018091360190913701FB
:10117000019791F48091340190913501892B61F4AC
:101180002130310549F480914C0190914D01019637
:1011900090934D0180934C0180914C0190914D01B1
:1011A000079724F010924D0110924C01809132016A
:1011B00090913301019791F4809130019091310128
:1011C000892B61F42130310549F480914A019091D5
:1011D0004B01019690934B0180934A0180914A0103
:1011E00090914B01079724F010924B0110924A0105
:1011F00080912E0190912F01019791F480912C0103
:1012000090912D01892B61F42130310549F48091B1
:1012100048019091490101969093490180934801BA
:101220008091480190914901079724F0109249015B
:101230001092480180912A0190912B01019791F41D
:101240008091280190912901892B61F42130310589
:1012500049F480914601909147010196909347018E
:10126000809346018091460190914701079724F0B1
:10127000109247011092460180912601909127011A
:10128000019791F48091240190912501892B61F4BB
:101290002130310549F48091440190914501019636
:1012A00090934501809344018091440190914501C0
:1012B000079724F010924501109244018091220179
:1012C00090912301019791F4809120019091210147
:1012D000892B61F42130310549F4809142019091CC
:1012E0004301019690934301809342018091420112
:1012F00090914301079724F010924301109242010C
:101300002130310521F41092730110927201809105
:1013100072018AB98091600190916101019709F091
:10132000D9CC80911E0190911F01892B09F0D2CC5C
:1013300010927701109276016091500187E090E061
:1013400022D860914E0188E090E01DD860914C0158
:1013500089E090E018D860914A018AE090E013D8C3
:10136000609148018BE090E00ED8609146018CE0DE
:1013700090E009D8609144018FE090E004D860913A
:10138000420180E190E06ECEE0905C01F0905D0162
:101390003FEFE31AF30AF0925D01E0925C01A09145
:1013A0005A01B0915B011196B0935B01A0935A0171
:1013B000E0915801F09159013196F0935901E09371
:1013C000580160915601709157016F5F7F4F709384
:1013D00057016093560140915401509155014F5F60
:1013E0005F4F509355014093540120915201309129
:1013F000530189010F5F1F4F109353010093520156
:1014000022E0E216F10424F010925D0110925C01DA
:10141000139724F010925B0110925A01349724F034
:1014200010925901109258016630710524F0109203
:101430005701109256014830510524F01092550181
:10144000109254010A30110524F0109253011092A9
:10145000520120915001309151012130310561F448
:1014600020915C0130915D01121613067CF0109200
:101470006F0110926E010AC022303105D1F4209123
:101480005A0130915B01223031058CF320914E01DD
:1014900030914F0121303105A9F520915C01309147
:1014A0005D0112161306C4F11092710110927001C1
:1014B00033C02330310529F420915801309159016E
:1014C000E2CF2430310541F420915601309157018B
:1014D0002330310564F2DACF2530310541F4209113
:1014E000540130915501243031050CF2CFCF263014
:1014F000310561F6209152013091530125303105BB
:101500002CF6B5CF22303105D1F420915A0130911B
:101510005B012230310544F220914C0130914D01A4
:1015200021303105B9F520915C0130915D01121631
:101530001306D4F1109267011092660135C0233072
:10154000310529F42091580130915901E2CF24301E
:10155000310549F42091560130915701233031056E
:101560000CF4A2CFD9CF2530310549F42091540194
:1015700030915501243031050CF496CFCDCF263073
:10158000310551F62091520130915301253031053A
:101590001CF68ACF22303105D1F420915A013091C6
:1015A0005B012230310534F220914A0130914B0128
:1015B00021303105B9F520915C0130915D011216A1
:1015C0001306D4F110926B0110926A0135C02330DA
:1015D000310529F42091580130915901E2CF24308E
:1015E000310549F4209156013091570123303105DE
:1015F0000CF4A0CFD9CF2530310549F42091540106
:1016000030915501243031050CF494CFCDCF2630E4
:10161000310551F6209152013091530125303105A9
:101620001CF688CF22303105D1F420915A01309137
:101630005B012230310534F220914801309149019B
:1016400021303105B9F520915C0130915D01121610
:101650001306D4F1109269011092680135C023304D
:10166000310529F42091580130915901E2CF2430FD
:10167000310549F42091560130915701233031054D
:101680000CF4A0CFD9CF2530310549F42091540175
:1016900030915501243031050CF494CFCDCF263054
:1016A000310551F620915201309153012530310519
:1016B0001CF688CF22303105D1F420915A013091A7
:1016C0005B012230310534F220914601309147010F
:1016D00021303105B9F520915C0130915D01121680
:1016E0001306D4F110926D0110926C0135C02330B5
:1016F000310529F42091580130915901E2CF24306D
:10170000310549F4209156013091570123303105BC
:101710000CF4A0CFD9CF2530310549F420915401E4
:1017200030915501243031050CF494CFCDCF2630C3
:10173000310551F620915201309153012530310588
:101740001CF688CF22303105D1F420915A01309116
:101750005B012230310534F2209144013091450182
:1017600021303105B9F520915C0130915D011216EF
:101770001306D4F1109265011092640135C0233034
:10178000310529F42091580130915901E2CF2430DC
:10179000310549F42091560130915701233031052C
:1017A0000CF4A0CFD9CF2530310549F42091540154
:1017B00030915501243031050CF494CFCDCF263033
:1017C000310551F6209152013091530125303105F8
:1017D0001CF688CF22303105D1F420915A01309186
:1017E0005B012230310534F22091420130914301F6
:1017F00021303105B9F520915C0130915D0112165F
:101800001306DCF1109263011092620136C023309E
:10181000310529F42091580130915901E2CF24304B
:10182000310549F42091560130915701233031059B
:101830000CF4A0CFD9CF2530310549F420915401C3
:1018400030915501243031050CF494CFCDCF2630A2
:10185000310551F620915201309153012530310567
:101860001CF688CF2230310509F037C120915A018A
:1018700030915B01223031052CF2A0917001B091C2
:101880007101E0906E01F0906F01E0916C01F091B8
:101890006D0160916A0170916B01409168015091F6
:1018A00069012091660130916701A230B10501F113
:1018B00012E0E116F104E1F0E230F105C9F0623026
:1018C0007105B1F04230510599F02230310581F0B7
:1018D000C0906401D090650112E0C116D10441F0BE
:1018E000C0906201D090630112E0C116D10451F49E
:1018F000C0907401D09075016894C0F8D0927501C1
:10190000C0927401E330F10501F1A330B105E9F0B3
:1019100013E0E116F104C9F063307105B1F0433012
:10192000510599F02330310581F0C0906401D090C9
:10193000650113E0C116D10441F0C0906201D0905E
:10194000630113E0C116D10451F4C0907401D0902A
:1019500075016894C1F8D0927501C0927401643029
:10196000710501F1A430B105E9F014E0E116F104CC
:10197000C9F0E430F105B1F04430510599F024305C
:10198000310581F0C0906401D090650114E0C1166A
:10199000D10441F0C0906201D090630114E0C116FF
:1019A000D10451F4C0907401D09075016894C2F8CC
:1019B000D0927501C0927401019749F4809174012D
:1019C0009091750188609093750180937401263021
:1019D0003105E1F0A630B105C9F086E0E816F10462
:1019E000A9F0E630F10591F06630710579F04630E6
:1019F000510561F08091640190916501069731F085
:101A00008091620190916301069749F4809174017D
:101A100090917501806190937501809374014530B8
:101A20005105E1F0A530B105C9F095E0E916F104E2
:101A3000A9F0E530F10591F06530710579F02530B8
:101A4000310561F08091640190916501059731F055
:101A50008091620190916301059749F4809174012E
:101A600090917501806290937501809374018091CB
:101A70005E0190915F01019749F48091720190910C
:101A8000730184609093730180937201EA94EF284C
:101A9000D1F01197C1F03197B1F06130710599F033
:101AA0004130510581F02130310569F080916401A8
:101AB00090916501019739F08091620190916301E5
:101AC000019709F007C980917201909173018068B4
:101AD0009093730180937201FDC82330310529F47E
:101AE0002091580130915901C5CE2430310549F477
:101AF0002091560130915701233031050CF482CEEC
:101B0000BCCE2530310549F4209154013091550166
:101B1000243031050CF476CEB0CE2630310509F0F4
:101B2000ACCE2091520130915301253031050CF497
:101B300069CEA3CEF999FECF92BD81BDF89A9927BF
:101B400080B50895262FF999FECF1FBA92BD81BDA9
:101B500020BD0FB6F894FA9AF99A0FBE019608952F
:101B6000F894FFCF03000400050006000100020006
:101E8000112424B614BE80E07ED021FED2C08EE0A4
:101E90007AD0E0ECF0E0AFE7BFEF4899FECF909644
:101EA000489BFDCFB4831197F1F7B2E0B083B8E15E
:101EB000B18357D0C82F823559F46BD0E0E8FEE1EA
:101EC000E054F109A89583E089D03097C9F73FC065
:101ED0008D7FF1F453D0D82FA0E0B1E042D08D93A4
:101EE000DA13FCCF56D0C1110FC0A0E0B1E0F999D0
:101EF000FECF1FBAF2BDE1BD8D9180BDFA9AF99A6D
:101F00003196DA13F4CF23C0A0E0B1E04CD01FC06B
:101F1000C33041F433D0C82F3CD085911BD0C15081
:101F2000E1F715C0C13071F429D0C82F32D0F9992A
:101F3000FECFF2BDE1BDF89A80B50CD03196C1500C
:101F4000B1F705C0C13511F488E01DD022D081E57C
:101F500001D0AFCF9091C00095FFFCCF8093C60019
:101F600008952D9A259A8091C00087FFFCCF84FDAB
:101F700013C0A8958091C6002D980895F2DFE82F30
:101F8000F0DFF82FEECF98E190936000809360002F
:101F90000895E7DF803219F088E0F5DFFFCF80EAAF
:101FA000D9CFFB01DC0160E46A0F9F01E0388EE1CC
:101FB000F807C8F483E012D0309629F48FE38D93AC
:101FC0008FEC8C93119781E00D901D9007D0329685
:101FD000A613FACFF90185E001D081E187BFE8952A
:0A1FE00007B600FCFDCF11240895A0
:061FFA000619D2CFE73FFB
:00000001FF
