:100000004BC065C064C063C062C061C060C05FC0F7
:100010005EC05DC05CC05BC05AC059C058C057C00C
:10002000B4C155C054C053C052C051C050C04FC0DD
:100030004EC04DC000000000240027002A00000030
:100040000000250028002B000000000023002600EF
:10005000290004040404040404040202020202024B
:1000600003030303030302020301020408102040F8
:100070008001020408102001020408102040804082
:100080000000000900030200000405080000000051
:10009000000000000000000011241FBECFEFD4E0DC
:1000A000DEBFCDBF11E0A0E0B1E0E2E5FBE102C0C0
:1000B00005900D92AC30B107D9F721E0ACE0B1E08A
:1000C00001C01D92A139B207E1F7A9D140CD98CF67
:1000D000843081F028F48230E9F08330F9F008951B
:1000E000883071F0893091F08530B9F480918000CA
:1000F0008F7D03C0809180008F778093800008956A
:100100008091B0008F778093B00008958091B00007
:100110008F7DF9CF84B58F7784BD089584B58F7DA9
:10012000FBCF1F93CF93DF93282F30E0F901E058E6
:10013000FF4F8491F901E759FF4FD491F901EE5A2D
:10014000FF4FC491CC23A1F0162F8111C1DFEC2FFA
:10015000F0E0EE0FFF1FE25CFF4FA591B4918FB767
:10016000F894EC91111108C0D095DE23DC938FBF79
:10017000DF91CF911F910895DE2BF8CFCF93DF93BE
:1001800090E0FC01E759FF4F24918E5A9F4FFC01EC
:1001900084918823D1F090E0880F991FFC01EC5CDA
:1001A000FF4FA591B491FC01E25CFF4FC591D49142
:1001B00061110EC09FB7F8948C91E22FE0958E23C9
:1001C0008C932881E223E8839FBFDF91CF9108952C
:1001D0008FB7F894EC91E22BEC938FBFF6CF000031
:1001E00000008330910528F0880F991F059701972B
:1001F000F1F70895EF92FF920F931F93CF93DF9340
:1002000010928B0110928C0110928A01C82FD0E0BD
:1002100000E810E090918A01983008F056C0809173
:1002200086019E0102C0359527959A95E2F761E017
:1002300020FF60E076DF60E08091880172DF8091CE
:10024000890190E0CCDF2091850130E0F901E05890
:10025000FF4F8491F901E759FF4FE490F901EE5AFD
:10026000FF4FF490F11010C010928B0161E080916B
:10027000880157DF8091890190E0B1DF80918A0188
:100280008F5F80938A01C6CF811122DFEF2DF0E0CE
:10029000EE0FFF1FE85BFF4FA591B491EC91EE21AB
:1002A00081E009F480E080938B01EE23F9F28091E4
:1002B0008A01980102C0359527958A95E2F78091C9
:1002C0008C01822B80938C01D1CF80918C01DF91A6
:1002D000CF911F910F91FF90EF9008953FB7F89441
:1002E0008091810190918201A0918301B09184015C
:1002F00026B5A89B05C02F3F19F00196A11DB11D81
:100300003FBFBA2FA92F982F8827BC01CD01620FBC
:10031000711D811D911D43E0660F771F881F991F76
:100320004A95D1F708958F929F92AF92BF92CF9244
:10033000DF92EF92FF924B015C01D0DF6B017C01F9
:10034000CDDF6C197D098E099F09683E73408105D8
:100350009105B0F321E0821A9108A108B10888EE56
:10036000C80E83E0D81EE11CF11C81149104A10485
:10037000B10431F7FF90EF90DF90CF90BF90AF9036
:100380009F908F900895D5CBCCCB1F920F920FB634
:100390000F9211242F933F938F939F93AF93BF930B
:1003A00080917D0190917E01A0917F01B0918001AB
:1003B00030917C0126E0230F2D3768F129E8230FC7
:1003C0000396A11DB11D20937C0180937D01909324
:1003D0007E01A0937F01B093800180918101909173
:1003E0008201A0918301B09184010196A11DB11DEC
:1003F0008093810190938201A0938301B093840143
:10040000BF91AF919F918F913F912F910F900FBE10
:100410000F901F9018950296A11DB11DD4CF78940E
:1004200084B5836084BD85B5836085BD80916E0091
:10043000816080936E0082E08093810080918100D2
:100440008160809381008091800081608093800032
:100450008091B10084608093B1008091B000816090
:100460008093B00086E880937A001092C10060E02B
:1004700083E184DE61E083E154DE83E180938501E2
:1004800061E08EE07BDE8EE08093860161E080E1BA
:1004900075DE80E18093870161E043DE61E08FE0FB
:1004A0006DDE8FE08093880161E03BDE8AE080931F
:1004B000890181E190E068DF282F30E03093170157
:1004C00020931601823050F081E090E09093170164
:1004D0008093160161E081E190E055DF8091160183
:1004E00090911701892B09F090C0CCE0D0E01AB8A8
:1004F00060E170E080E090E016DF509A60E170E02B
:1005000080E090E010DF219791F790E080E03CDF01
:1005100090E090930B0180930A0181E090E034DF3A
:1005200090E0909309018093080182E090E02CDF35
:1005300090E0909307018093060183E090E024DF30
:1005400090E0909305018093040184E090E01CDF2B
:1005500090E0909303018093020185E090E014DF26
:1005600090E090930101809300018DE090E00CDF1A
:1005700090E090931F0180931E018EE090E004DFD5
:1005800090E090931D0180931C0187E090E0FCDED9
:1005900090E0909353018093520188E090E0F4DE64
:1005A00090E0909351018093500189E090E0ECDE5F
:1005B00090E090934F0180934E018AE090E0E4DE5A
:1005C00090E090934D0180934C018BE090E0DCDE55
:1005D00090E090934B0180934A018CE090E0D4DE50
:1005E00090E090934901809348018FE090E0CCDE49
:1005F00090E0909347018093460180E190E0C4DE53
:1006000090E0909345018093440180911601909170
:100610001701019739F4509A68EE73E080E090E09A
:1006200082DE1AB8C1E0D0E082E0E82EF12C94E03E
:10063000292E312C25E0422E512C36E0632E712CD0
:10064000809140019091410190933F0180933E0140
:1006500080913C0190913D0190933B0180933A0140
:100660008091380190913901909337018093360140
:100670008091340190913501909333018093320140
:10068000809130019091310190932F0180932E0140
:10069000A0902C01B0902D01B0922B01A0922A01C4
:1006A000809110019091110190932101809320017C
:1006B000C0900E01D0900F01D0921B01C0921A0180
:1006C0008090280190902901909227018092260124
:1006D0008091240190912501909323018093220120
:1006E00010927701109276011092750110927401A8
:1006F00010926101109260011092630110926201E8
:1007000010924301109242011092110110921001B7
:1007100010920F0110920E011092410110924001AF
:1007200010923D0110923C0110922D0110922C016B
:100730001092290110922801109225011092240193
:100740001092350110923401109231011092300153
:1007500010923901109238011092710110927001BB
:10076000109273011092720110926F0110926E013B
:1007700010926D0110926C0110926B0110926A013F
:10078000109269011092680110926701109266013F
:10079000109265011092640160E080918701C1DCD4
:1007A00081E028DD82E426DD8FEF24DD8FEF22DD7E
:1007B000809580938D018FEF1DDD809580938E0154
:1007C00061E080918701ADDC00918D0110918E0177
:1007D0001093900100938F0110930D0100930C0171
:1007E0006FE070E080E090E09EDD13FF10C080912C
:1007F0000A0190910B019093710180937001D09345
:100800004101C0934001D0934301C093420114FFC2
:1008100015C0809100019091010190936F01809328
:100820006E01D0932D01C0932C01809142019091D3
:1008300043010196909343018093420115FF15C037
:1008400080911E0190911F01909367018093660132
:10085000D0932901C09328018091420190914301D6
:100860000196909343018093420117FF15C0809138
:100870001C0190911D019093650180936401D093B8
:100880002501C0932401809142019091430101967A
:10089000909343018093420111FF15C080910201A2
:1008A0009091030190936B0180936A01D093310181
:1008B000C093300180914201909143010196909341
:1008C00043018093420104FF08C0D0936301C093A9
:1008D0006201D0931101C093100116FF15C08091E1
:1008E0000601909107019093690180936801D0936C
:1008F0003901C093380180914201909143010196E2
:10090000909343018093420112FF15C0809104012E
:100910009091050190936D0180936C01D093350106
:10092000C0933401809142019091430101969093CC
:1009300043018093420103FF04C0F0927501E092ED
:10094000740107FF08C0D0936101C0936001D09388
:100950000F01C0930E0101FF09C0809174019091B5
:1009600075018061909375018093740100FF09C047
:1009700080917401909175018062909375018093CC
:10098000740102FF09C08091740190917501806427
:10099000909375018093740110FF15C08091080138
:1009A000909109019093730180937201D0933D015E
:1009B000C0933C0180914201909143010196909334
:1009C0004301809342018091280190912901019770
:1009D00009F08CC180912C0190912D01019709F0B3
:1009E00085C18091600190916101019709F07EC1FC
:1009F0008A94892809F07AC1AA94AB2809F076C1B3
:100A0000CA94CD2809F072C1809118019091190102
:100A1000019690931901809318018091180190918B
:100A200019018C3D91050CF4AAC010921901109285
:100A3000180180911601909117010196909317016A
:100A40008093160102970CF456C110921701109270
:100A500016010CE010E01AB860E170E080E090E070
:100A600062DC509A60E170E080E090E05CDC015074
:100A7000110989F790E080E087DC90E090930B010A
:100A800080930A0181E090E07FDC90E0909309017F
:100A90008093080182E090E077DC90E0909307017A
:100AA0008093060183E090E06FDC90E09093050175
:100AB0008093040184E090E067DC90E09093030170
:100AC0008093020185E090E05FDC90E0909301016B
:100AD000809300018DE090E057DC90E090931F013F
:100AE00080931E018EE090E04FDC90E090931D011A
:100AF00080931C0187E090E047DC90E090935301E5
:100B00008093520188E090E03FDC90E090935101A7
:100B10008093500189E090E037DC90E090934F01A2
:100B200080934E018AE090E02FDC90E090934D019D
:100B300080934C018BE090E027DC90E090934B0198
:100B400080934A018CE090E01FDC90E09093490193
:100B5000809348018FE090E017DC90E0909347018C
:100B60008093460180E190E00FDC90E09093450196
:100B7000809344016091160181E190E004DC809152
:100B80006201909163018130910509F0FFC02091CD
:100B90004201309143012230310509F0F7C0209124
:100BA0002001309121012130310509F0EFC0209161
:100BB000160130911701232B09F0E8C02091140190
:100BC000309115012F5F3F4F309315012093140191
:100BD0002091140130911501203A310544F0109212
:100BE000150110921401D0937B01C0937A018130DA
:100BF000910509F0D0C0209142013091430121308C
:100C0000310509F0C8C02091200130912101213027
:100C1000310509F0C0C02091160130911701232B36
:100C200009F0B9C020911201309113012F5F3F4F9D
:100C3000309313012093120120911201309113017E
:100C4000203A310544F01092130110921201D09312
:100C50007901C093780120917A0130917B01213094
:100C6000310509F0FBC110927901109278012091B1
:100C70004201309143018130910509F091C0223049
:100C8000310509F08DC010920B0110920A011092EB
:100C900009011092080110920701109206011092AA
:100CA00005011092040110920301109202011092AA
:100CB00001011092000110921F0110921E0110926A
:100CC0001D0110921C01909375018093740181E0C5
:100CD0008AB98091760184B9809174018AB980E0E3
:100CE00090E0892B09F4ACCC8BD9AACC10921901D5
:100CF0001092180192CE509A68EE73E080E090E076
:100D000012DB1AB814B8D0930901C0930801F0920D
:100D10000B01E0920A0183E090E09093010180933F
:100D2000000130920301209202015092050140928D
:100D30000401709207016092060110921F01109247
:100D40001E0110921D0110921C011092530110926D
:100D50005201109251011092500110924F011092C5
:100D60004E0110924D0110924C0110924B011092C5
:100D70004A011092490110924801109247011092C5
:100D800046011092450110924401F4CE10921501D3
:100D9000109214011DCF10921301109212014CCF2A
:100DA0008091740190917501816090937501809399
:100DB00074018091400190914101019791F48091DB
:100DC0003E0190913F01892B61F42130310549F4B6
:100DD00080910A0190910B01019690930B018093F1
:100DE0000A0180910A0190910B01079724F010925B
:100DF0000B0110920A0180913C0190913D010197F5
:100E000091F480913A0190913B01892B61F421305A
:100E1000310549F480910801909109010196909360
:100E200009018093080180910801909109010797B9
:100E300024F01092090110920801809138019091DC
:100E40003901019791F48091360190913701892BF6
:100E500061F42130310549F4809106019091070138
:100E6000019690930701809306018091060190916D
:100E70000701079724F01092070110920601809154
:100E8000280190912901019791F480912601909178
:100E90002701892B61F42130310549F480911E012D
:100EA00090911F01019690931F0180931E018091E4
:100EB0001E0190911F01079724F010921F011092BC
:100EC0001E018091240190912501019791F4809158
:100ED000220190912301892B61F42130310549F4DD
:100EE00080911C0190911D01019690931D018093AA
:100EF0001C0180911C0190911D01079724F0109214
:100F00001D0110921C0180913401909135010197CF
:100F100091F48091320190913301892B61F4213059
:100F2000310549F480910401909105010196909357
:100F300005018093040180910401909105010797B8
:100F400024F01092050110920401809130019091DB
:100F50003101019791F480912E0190912F01892BFD
:100F600061F42130310549F480910201909103012F
:100F70000196909303018093020180910201909168
:100F80000301079724F0109203011092020180914F
:100F90002C0190912D01019791F480912A0190915B
:100FA0002B01892B61F42130310549F48091000136
:100FB000909101010196909301018093000180912D
:100FC000000190910101079724F010920101109205
:100FD00000012130310521F4109275011092740145
:100FE000809174018AB980916201909163010197A7
:100FF00009F06FCE8091200190912101892B09F099
:1010000068CE10927B0110927A0160910A0190E003
:1010100080E0B9D96091080181E090E0B4D9609195
:10102000060182E090E0AFD96091040183E090E096
:10103000AAD96091020184E090E0A5D960910001F5
:1010400085E090E0A0D960911E018DE090E09BD9F1
:1010500060911C018EE090E096D93BCE2091780102
:10106000309179012130310509F088C12091420188
:10107000309143018130910521F52130310509F589
:10108000109253011092520110925101109250018E
:1010900010924F0110924E0110924D0110924C018E
:1010A00010924B0110924A0110924901109248018E
:1010B000109247011092460110924501109244018E
:1010C00002CE8091740190917501816090937501B9
:1010D000809374018091400190914101019791F4B6
:1010E00080913E0190913F01892B61F421303105BF
:1010F00049F48091520190915301019690935301CC
:10110000809352018091520190915301079724F0EE
:10111000109253011092520180913C0190913D0137
:10112000019791F480913A0190913B01892B61F4F0
:101130002130310549F4809150019091510101967F
:1011400090935101809350018091500190915101F1
:10115000079724F0109251011092500180913801AC
:1011600090913901019791F4809136019091370166
:10117000892B61F42130310549F480914E01909121
:101180004F01019690934F0180934E0180914E0143
:1011900090914F01079724F010924F0110924E0149
:1011A0008091340190913501019791F48091320141
:1011B00090913301892B61F42130310549F48091FC
:1011C0004C0190914D01019690934D0180934C01FB
:1011D00080914C0190914D01079724F010924D01A0
:1011E00010924C018091300190913101019791F45E
:1011F00080912E0190912F01892B61F421303105CE
:1012000049F480914A0190914B01019690934B01D2
:1012100080934A0180914A0190914B01079724F0F5
:1012200010924B0110924A0180912C0190912D0156
:10123000019791F480912A0190912B01892B61F4FF
:101240002130310549F4809148019091490101967E
:101250009093490180934801809148019091490100
:10126000079724F0109249011092480180912801BB
:1012700090912901019791F4809126019091270185
:10128000892B61F42130310549F480914601909118
:101290004701019690934701809346018091460152
:1012A00090914701079724F0109247011092460150
:1012B0008091240190912501019791F48091220160
:1012C00090912301892B61F42130310549F48091FB
:1012D000440190914501019690934501809344010A
:1012E0008091440190914501079724F010924501A7
:1012F000109244012130310521F4109275011092B1
:101300007401809174018AB98091620190916301A6
:10131000019709F0DECC8091200190912101892B69
:1013200009F0D7CC109279011092780160915201A6
:1013300087E090E028D86091500188E090E023D8C1
:1013400060914E0189E090E01ED860914C018AE0E6
:1013500090E019D860914A018BE090E014D8609138
:1013600048018CE090E00FD8609146018FE090E05A
:101370000AD86091440180E190E06ECE00915E0158
:1013800010915F010F5F1F4F10935F0100935E018B
:10139000A0915C01B0915D011196B0935D01A093A5
:1013A0005C01E0915A01F0915B013196F0935B0191
:1013B000E0935A0160915801709159016F5F7F4F1E
:1013C0007093590160935801409156015091570113
:1013D0004F5F5F4F50935701409356012091540146
:1013E000309155012F5F3F4F3093550120935401A9
:1013F0000230110524F010925F0110925E011397E4
:1014000024F010925D0110925C01349724F0109248
:101410005B0110925A016630710524F01092590157
:10142000109258014830510524F010925701109243
:1014300056012A30310524F01092550110925401C2
:1014400020915201309153012130310561F42091F6
:101450005E0130915F01121613067CF0109271014B
:10146000109270010AC022303105D1F420915C0144
:1014700030915D01223031058CF320915001309183
:10148000510121303105A9F520915E0130915F01B4
:1014900012161306C4F1109273011092720133C038
:1014A0002330310529F420915A0130915B01E2CFBC
:1014B0002430310541F420915801309159012330F5
:1014C000310564F2DACF2530310541F4209156011F
:1014D00030915701243031050CF2CFCF2630310541
:1014E00061F62091540130915501253031052CF6DB
:1014F000B5CF22303105D1F420915C0130915D01EE
:101500002230310544F220914E0130914F012130BB
:101510003105B9F520915E0130915F011216130675
:10152000D4F1109269011092680135C02330310561
:1015300029F420915A0130915B01E2CF243031052A
:1015400049F42091580130915901233031050CF4B0
:10155000A2CFD9CF2530310549F4209156013091E1
:101560005701243031050CF496CFCDCF263031050C
:1015700051F62091540130915501253031051CF66A
:101580008ACF22303105D1F420915C0130915D0188
:101590002230310534F220914C0130914D0121303F
:1015A0003105B9F520915E0130915F0112161306E5
:1015B000D4F110926D0110926C0135C023303105C9
:1015C00029F420915A0130915B01E2CF243031059A
:1015D00049F42091580130915901233031050CF420
:1015E000A0CFD9CF2530310549F420915601309153
:1015F0005701243031050CF494CFCDCF263031057E
:1016000051F62091540130915501253031051CF6D9
:1016100088CF22303105D1F420915C0130915D01F9
:101620002230310534F220914A0130914B012130B2
:101630003105B9F520915E0130915F011216130654
:10164000D4F110926B0110926A0135C0233031053C
:1016500029F420915A0130915B01E2CF2430310509
:1016600049F42091580130915901233031050CF48F
:10167000A0CFD9CF2530310549F4209156013091C2
:101680005701243031050CF494CFCDCF26303105ED
:1016900051F62091540130915501253031051CF649
:1016A00088CF22303105D1F420915C0130915D0169
:1016B0002230310534F22091480130914901213026
:1016C0003105B9F520915E0130915F0112161306C4
:1016D000D4F110926F0110926E0135C023303105A4
:1016E00029F420915A0130915B01E2CF2430310579
:1016F00049F42091580130915901233031050CF4FF
:10170000A0CFD9CF2530310549F420915601309131
:101710005701243031050CF494CFCDCF263031055C
:1017200051F62091540130915501253031051CF6B8
:1017300088CF22303105D1F420915C0130915D01D8
:101740002230310534F22091460130914701213099
:101750003105B9F520915E0130915F011216130633
:10176000D4F1109267011092660135C02330310523
:1017700029F420915A0130915B01E2CF24303105E8
:1017800049F42091580130915901233031050CF46E
:10179000A0CFD9CF2530310549F4209156013091A1
:1017A0005701243031050CF494CFCDCF26303105CC
:1017B00051F62091540130915501253031051CF628
:1017C00088CF22303105D1F420915C0130915D0148
:1017D0002230310534F2209144013091450121300D
:1017E0003105B9F520915E0130915F0112161306A3
:1017F000DCF1109265011092640136C0233031058E
:1018000029F420915A0130915B01E2CF2430310557
:1018100049F42091580130915901233031050CF4DD
:10182000A0CFD9CF2530310549F420915601309110
:101830005701243031050CF494CFCDCF263031053B
:1018400051F62091540130915501253031051CF697
:1018500088CF2230310509F037C120915C013091E9
:101860005D01223031052CF2A0917201B09173011B
:101870000091700110917101E0916E01F0916F0182
:1018800060916C0170916D0140916A0150916B0102
:10189000A0906801B0906901A230B10501F1023059
:1018A0001105E9F0E230F105D1F062307105B9F0CF
:1018B00042305105A1F022E0A216B10481F0C0909F
:1018C0006601D090670122E0C216D10441F0C090B9
:1018D0006401D090650122E0C216D10451F4C09099
:1018E0007601D09077016894C0F8D0927701C092C9
:1018F0007601E330F10501F1A330B105E9F00330E1
:101900001105D1F063307105B9F043305105A1F0F4
:1019100023E0A216B10481F0C0906601D090670167
:1019200023E0C216D10441F0C0906401D09065015B
:1019300023E0C216D10451F4C0907601D090770113
:101940006894C1F8D0927701C09276016430710535
:1019500001F1A430B105E9F004301105D1F0E43013
:10196000F105B9F044305105A1F024E0A216B1040C
:1019700081F0C0906601D090670124E0C216D104C6
:1019800041F0C0906401D090650124E0C216D104FA
:1019900051F4C0907601D09077016894C2F8D0924B
:1019A0007701C0927601019749F480917601909178
:1019B00077018860909377018093760186E0A8167E
:1019C000B104D9F0A630B105C1F006301105A9F077
:1019D000E630F10591F06630710579F04630510539
:1019E00061F08091660190916701069731F08091D6
:1019F000640190916501069749F480917601909178
:101A0000770180619093770180937601453051058D
:101A1000E1F0A530B105C9F005301105B1F0E530B0
:101A2000F10599F06530710581F095E0A916B104D2
:101A300061F08091660190916701059731F0809186
:101A4000640190916501059749F480917601909128
:101A50007701806290937701809376018091600195
:101A600090916101019749F4809174019091750101
:101A70008460909375018093740101301105D1F059
:101A80001197C1F03197B1F06130710599F0413093
:101A9000510581F0AA94AB2869F08091660190917C
:101AA0006701019739F08091640190916501019778
:101AB00009F00FC98091740190917501806890932D
:101AC00075018093740105C92330310529F42091F3
:101AD0005A0130915B01C5CE2430310549F4209183
:101AE000580130915901233031050CF482CEBCCE1F
:101AF0002530310549F420915601309157012430A9
:101B000031050CF476CEB0CE2630310509F0ACCEDE
:101B10002091540130915501253031050CF469CEE6
:101B2000A3CEF999FECF92BD81BDF89A992780B5D1
:101B30000895262FF999FECF1FBA92BD81BD20BD11
:101B40000FB6F894FA9AF99A0FBE01960895F89490
:021B5000FFCFC5
:0C1B520003000400050006000100020072
:00000001FF
